:020000040800F2
:1080000000000220893801081938010819380108D0
:108010001938010819380108193801080000000052
:1080200000000000000000000000000019380108F6
:10803000193801080000000019380108E90800207B
:1080400019380108193801081938010809F300081E
:1080500019380108193801081938010819380108B8
:1080600019380108193801081938010819380108A8
:10807000193801081938010861EF000831EF0008CC
:108080001938010819380108193801081938010888
:108090001938010819380108193801081938010878
:1080A00019380108EDCA00081938010839CB000851
:1080B0001938010819380108193801081938010858
:1080C0001938010819380108193801081938010848
:1080D000193801081D890008118A0008118B000851
:1080E00019380108DDF200081938010819380108AB
:1080F0001938010819380108193801081938010818
:1081000019380108B1EC00081938010819380108BC
:1081100019380108193801081938010819380108F7
:1081200019380108193801081938010819380108E7
:1081300019380108193801081938010819380108D7
:1081400019380108193801081938010819380108C7
:1081500019380108193801081938010819380108B7
:1081600019380108193801081938010819380108A7
:108170001938010819380108193801081938010897
:10818000193801081938010870B5094D0024064650
:108190002C802B889BB2B34200D370BD2B889BB23E
:1081A000A342F6D02C88A4B20CF0F4F8F1E700BF9B
:1081B000A409002008B501217F200CF083F90121DA
:1081C00010200CF0A3F901214FF400300CF092F9CB
:1081D00001214FF480200CF08DF9BDE808400248E1
:1081E00001210CF087B900BF0000071010B5344C16
:1081F0000722022120460BF0A0FF07220321204680
:108200000BF09BFF12230322042120460BF052FFA8
:1082100012230322082120460BF04CFF07220921DC
:1082200020460BF08AFF07220A2120460BF085FF2B
:10823000122303224FF4007120460BF03BFF122360
:1082400003224FF4806120460BF034FF1D480722C3
:108250000A210BF072FF1B4807220B210BF06DFF68
:108260001848122303224FF480610BF023FF1548B6
:10827000122303224FF400610BF01CFF124801236C
:1082800003224FF400710BF015FF0F480123032266
:108290004FF480610BF00EFF012303220B484FF4D3
:1082A00080710BF007FF0A4B0122C3F8A422C3F828
:1082B000A82203F500430022C3F8A02210BD00BF8E
:1082C0000000024000040240001402400018024076
:1082D0000080424202494FF000600BF0ABBB00BF90
:1082E0000080000008B545F255500CF041F803201D
:1082F0000CF044F84FF400600CF046F80CF04AF82B
:10830000BDE808400CF04EB837B50CF043F801F06A
:108310004DF97A4C7A4A20702178137899427CD0B2
:108320002378DBB21370237818071FD5754B1A8892
:1083300012B2052AC3BF1A88053A12B200221A8067
:108340001A88714B1A80714B1A780132D2B21A70A6
:108350001A783E2A84BF3F221A706D4A012111709B
:108360001B786C4A1C21142001F0CAFE237899075F
:1083700024D5644A684B11881B8809B2981F814232
:10838000B6BF138803F1FF3305331BB213805E4B76
:1083900012881A805D4B1A7802F0FF01002A00F063
:1083A00089801A78013AD2B21A70594A01211170A3
:1083B0001B78584A1C21142001F0A2FE2378DA070A
:1083C00016D5564A564B11881B8809B2981F814210
:1083D000B6BF138803F1FF3305331BB21380514B33
:1083E00012881A80504B1A78002A65D101221A701F
:1083F00023785B0711D5494B1A8812B2052AC3BFEF
:108400001A88053A12B200221A801A88454B1A803F
:10841000464A137843F00403137000F0ADFC0020CB
:1084200003F046FF424B1A7D02F0C001402940F0A4
:10843000B980404D404C22F040021A75B3F900203B
:10844000B3F90A302A8023802B882288012112B2B6
:1084500000921BB2394A084601F052FE2B881BB22B
:10846000002B2FDD2B881BB25B2B2BDC23881BB250
:10847000B3F5BB7F40F3968023881BB2B3F5E97F49
:1084800080F290802E4A0221192001F039FE234B00
:108490001A8812B2052AC3BF1A88053A12B20022FE
:1084A0001A801A881F4B1A80204A137843F004035D
:1084B000137077E0197078E71C4A137843F00203D1
:1084C000137095E72B881BB25F2B3DDD2B881BB209
:1084D000BA2B39DC23881BB2B3F5BB7F62DD23885E
:1084E0001BB2B3F5E97F5DDA164A0221192001F0CB
:1084F00007FE0E4A137843F00103D9E7B4090020C0
:10850000AA090020A8090020AE090020BC0900200B
:10851000BD090020C8CF010832110020A6090020A3
:1085200030110020AC0900205B1700205C170020F0
:1085300040110020B0090020B2090020D5CF010869
:10854000EACF0108F5CF01082B881BB2BE2B58DDFE
:108550002B881BB2B3F58D7F53DA23881BB2B3F59A
:10856000BB7F1FDD23881BB2B3F5E97F1ADA5C4AB3
:108570000221192001F0C4FD5A4A5B4B11881B8867
:1085800009B2981F8142B6BF138803F1FF33053348
:108590001BB21380554B12881A80554B1A785ABB60
:1085A00001221A7004F05EFB04F018FD514B1B7899
:1085B0000BB108F073FD504B1B78012B4F4B0CBFD8
:1085C00000220122C3F8A4224D4B1A7812B94D4A59
:1085D00012781AB1494A0021C2F8A8121B7833B99F
:1085E000484B1B781BB9454B0122C3F8A82203B0A6
:1085F000BDE8304009F00AB8434A137843F002035B
:1086000056E72B881BB2B3F58F7FCBDB2B881BB2D1
:10861000B3F59D7FC6DC23881BB2B3F5BE7F29DD91
:1086200023881BB2B3F5CD7F24DA384A0221192002
:1086300001F066FD364B1A8812B2052AC3BF1A88AC
:10864000053A12B200221A801A88324B1A80324B35
:108650001A780132D2B21A701A783E2A84BF3F22A9
:108660001A702E4A012111701B782D4A16211420F0
:1086700001F046FD23881BB2B3F5D77F92DD238836
:108680001BB2B3F5E67F8DDA264A0221192001F0EC
:1086900037FD1F4A244B11881B8809B2981F81425D
:1086A000B6BF138803F1FF3305331BB21380194B98
:1086B00012881A80184B1A7802F0FF016AB11A78F2
:1086C000013AD2B21A70154A012111701B78144A6E
:1086D0001621142001F014FD64E71970F3E700BFC0
:1086E00000D00108A609002030110020AC090020AC
:1086F0005B17002015170020B809002000804242B7
:10870000D40C0020C60900205C1700200BD0010803
:10871000A8090020AE090020BC090020BD090020E6
:10872000C8CF010816D0010832110020BFB5FFF7ED
:1087300041FDFFF7CFFDFFF759FD02A80BF060FEEA
:10874000574B4FF47A721B68B3FBF2F3013BB3F162
:10875000807F80F08A804FF0E022524D53610026E6
:10876000F023072785F823304FF440709661176196
:108770000BF02AF90BF0B0FB0128044676D100F08B
:108780002FFB494DFFF7AEFD00F006FD00F090FF16
:1087900001F0ECFC04F0F2F804F042F94FF48060D0
:1087A00001F032FA414A3946204601F0A9FC95ED24
:1087B000067ADFED3F7A67EE277A17EE900A13F01C
:1087C000DDFE3C4ACDE900010821204601F098FC7D
:1087D000E86913F0D3FE384ACDE9000109212046AB
:1087E00001F08EFCB5F922300093B5F92030334A00
:1087F0000A21204601F084FC95F82430009320469D
:108800002B7D2F4A2F4D0B2101F07AFC2E4B2F4947
:108810001B882F4A5B080B802E4B1B885B0813803C
:108820002D4B098819802D4B12881A802C4B1E80E5
:1088300004F06EFB04F06CFC08F03CFD294A2A4E63
:108840002146192001F05CFC284B1E221A70284C8E
:108850002B780BB13368984723889BB2002BF7D055
:1088600000232380FFF750FDF1E7FEE70BF008FB44
:108870000BF01CFB55200BF063FB0BF06DFB0BF0BA
:1088800023FB0BF00BFBBFF34F8FEA68194B02F48D
:10889000E0621343EB60BFF34F8F00BFFDE700BF03
:1088A0009800002000ED00E04011002021D00108D8
:1088B0000000C8422AD0010833D001083CD001088A
:1088C00053D00108AA14002030110020A60900206E
:1088D000A809002032110020AC090020AE090020B8
:1088E000BA09002067D00108A4140020BC090020A8
:1088F000B60900200400FA05BFF34F8F0549064B67
:10890000CA6802F4E0621343CB60BFF34F8F00BF2D
:10891000FDE700BF00ED00E00400FA0510B53248A5
:1089200040F225510CF098FAC8B12F480CF078FAB3
:108930002E4A2F4913889BB2C8540B78022B43D17F
:10894000138801339BB213802A4B01221A702A4BE1
:108950002548002240F225511A700CF09DFA224859
:1089600040F227710CF078FAB8B1244C244B2288DD
:108970001B8892B29BB29A4229D22388214A1A4874
:108980009BB2D15C0CF048FA238801339BB2238060
:10899000154840F227710CF07FFA134840F2266127
:1089A0000CF05AFA78B100220F4840F226610CF020
:1089B0003BFA0D4840F226610CF06EFA124A002391
:1089C0001370124A137010BD00231380BFE70648CE
:1089D000002240F227710CF027FA0348012240F2EE
:1089E00026610CF021FAD3E700100140CA0C0020E8
:1089F000C7090020C6090020C70C0020D60F0020A0
:108A0000C0090020D50C0020D40C0020D10C00207F
:108A100010B5344840F225510CF01EFAC8B1314867
:108A20000CF0FEF9304A314913889BB2C8540B78D8
:108A3000022B46D1138801339BB213802C4B0122A9
:108A40001A702C4B2748002240F225511A700CF066
:108A500023FA244840F227710CF0FEF9B8B1264CF5
:108A6000264B22881B8892B29BB29A422CD2238832
:108A7000234A1C489BB2D15C0CF0CEF92388013309
:108A80009BB22380174840F227710CF005FA154875
:108A900040F226610CF0E0F990B10022114840F25A
:108AA00026610CF0C1F90F4840F226610CF0F4F990
:108AB000144A00231370144AC2F8A032134A1370E8
:108AC00010BD00231380BCE70648002240F2277146
:108AD0000CF0AAF90348012240F226610CF0A4F937
:108AE000D0E700BF00440040CC0C0020C70A0020A3
:108AF000C6090020C80C0020D80F0020C2090020A1
:108B0000D50D0020D40C002000004342D20C0020E0
:108B100010B5324840F225510CF09EF9C8B12F48EB
:108B20000CF07EF92E4A2F4913889BB2C8540B785B
:108B3000022B43D1138801339BB213802A4B0122AD
:108B40001A702A4B2548002240F225511A700CF069
:108B5000A3F9224840F227710CF07EF9B8B1244CF9
:108B6000244B22881B8892B29BB29A4229D2238836
:108B7000214A1A489BB2D15C0CF04EF9238801338C
:108B80009BB22380154840F227710CF085F91348F9
:108B900040F226610CF060F978B100220F4840F2F3
:108BA00026610CF041F90D4840F226610CF074F991
:108BB000124A00231370124A137010BD0023138051
:108BC000BFE70648002240F227710CF02DF9034858
:108BD000012240F226610CF027F9D3E7004800405B
:108BE000CE0C0020C70B0020C6090020C90C0020B5
:108BF000DA0F0020C4090020D50E0020D40C00207C
:108C0000D30C002038B51A4C23889BB25BB3194AA9
:108C10001378022B1FD15379032B1CD1164953789B
:108C200009788B4201D0212B15D19078D578117914
:108C3000927983F0020343406B404B4083F003037F
:108C40009A4208D128400140FF2904D1002008F0B1
:108C5000E5FAFFF751FE2288064892B2002112F091
:108C600069FE00232380054B00221A7038BD00BF27
:108C7000CA0C0020C7090020D00C0020C609002023
:108C800038B51A4C23889BB25BB3194A1378022B70
:108C90001FD15379032B1CD11649537809788B4285
:108CA00001D0212B15D19078D5781179927983F064
:108CB000020343406B404B4083F003039A4208D1C8
:108CC00028400140FF2904D1002008F0A7FAFFF74F
:108CD00013FE2288064892B2002112F02BFE0023D8
:108CE0002380054B00221A7038BD00BFCC0C002039
:108CF000C70A0020D00C0020C609002038B51A4C45
:108D000023889BB25BB3194A1378022B1FD1537986
:108D1000032B1CD11649537809788B4201D0212BA3
:108D200015D19078D5781179927983F00203434078
:108D30006B404B4083F003039A4208D12840014026
:108D4000FF2904D1002008F069FAFFF7D5FD228839
:108D5000064892B2002112F0EDFD00232380054B5E
:108D600000221A7038BD00BFCE0C0020C70B0020B7
:108D7000D00C0020C609002008B5134B1B889BB2FD
:108D80003BB1124B1A78022A03D900221A70FFF75E
:108D900039FF0F4B1B889BB23BB10E4B1A78022A4E
:108DA00003D900221A70FFF76BFF0B4B1B889BB295
:108DB0004BB10A4B1A78022A05D900221A70BDE875
:108DC0000840FFF79BBF08BDCA0C0020C70C00205D
:108DD000CC0C0020C80C0020CE0C0020C90C0020B8
:108DE000944A0023F0B51380934A944C1380944A1C
:108DF000944D1380944A23701380944A2B701380EF
:108E0000934A1380934A1380934A1380934A87B0FE
:108E1000138025228DF804208DF8063002220123CC
:108E200001A88DF807308DF805200AF0D7FD2378CA
:108E3000002B00F0A380012B00F0B9802623022430
:108E40000126002701A88DF804308DF805408DF823
:108E500006708DF807600AF0C1FD8148072221469F
:108E60000BF06BF97E48072203210BF066F97C4872
:108E70001223032204210BF01DF979481223032247
:108E800008210BF017F9272301A88DF804308DF87D
:108E900005408DF806708DF807600AF09FFD2B786D
:108EA000B34200F09980A34200F0AD80BBB96D4899
:108EB00007220A210BF041F96A4807220B210BF027
:108EC0003CF96848122303224FF480610BF0F2F85A
:108ED0006448122303224FF400610BF0EBF8624A5E
:108EE00062480023CDE902234FF44022ADF814304C
:108EF00004920BF0D3FE012110200BF007FB02A916
:108F00005A480BF023FF0122584840F225510BF03C
:108F10008BFF012155480BF073FF55480BF0BEFE47
:108F200001214FF400300BF0E5FA02A950480BF094
:108F30000DFF01224E4840F225510BF075FF012133
:108F40004B480BF05DFF4B480BF0A8FE01214FF49E
:108F500080200BF0CFFA02A946480BF0F7FE012261
:108F6000444840F225510BF05FFF424801210BF0CD
:108F700047FF414B01221A7007B0F0BD3848072265
:108F800009210BF0DAF8364807220A210BF0D5F850
:108F90003348122303224FF400710BF08BF8304852
:108FA000122303224FF480610BF084F846E72D482A
:108FB000072206210BF0C1F80722114629480BF0C1
:108FC000BCF828481223032240210BF073F82548EF
:108FD000122303228021E7E7284807220A210BF009
:108FE000ACF8264807220B210BF0A7F823481223E0
:108FF00003224FF480610BF05DF820481223032216
:109000004FF4006169E71E48072208210BF095F82C
:109010001B48072209210BF090F81948122303225C
:109020004FF480710BF046F81548122303224FF4D9
:10903000007152E7CA0C0020D60F0020BE090020A4
:10904000C0090020BF090020CC0C0020D80F002050
:10905000C2090020CE0C0020DA0F0020C409002035
:10906000000002400004024080841E000010014005
:109070000044004000480040D00C0020000802409E
:10908000000C02401FB53B4B1B780121002B45D142
:109090004FF400100BF02EFA374B1B78042243BB21
:1090A000364806210BF049F83448042207210BF01A
:1090B00044F842230322402130480AF0FBFF4223B8
:1090C000032280212D480AF0F5FF2D480BF048F8C7
:1090D0002C492D4B2A48CDE900132C4B02934FF419
:1090E0008043ADF80C3069460BF06AF805B05DF8C6
:1090F00004FB224808210BF020F820480422092113
:109100000BF01BF8422303224FF480711B480AF036
:10911000D1FF422303224FF40071D3E74FF48000C4
:109120000BF0E8F9154804220A210BF006F8134861
:1091300004220B210BF001F81048422303224FF4C4
:1091400080610AF0B7FF422303224FF400610B480D
:109150000AF0B0FF0E480BF003F80B4B094A0C481D
:10916000CDE900230B4B02934FF48043ADF80C3054
:109170006946B9E7DC0F002000000020000402402F
:1091800000540040400D03000000FFBF58000004E1
:10919000005800406000000438B5084CFFF772FF2B
:1091A0002578012125B906480BF072F8257038BDE5
:1091B00004480BF06DF801232370F8E7DC0F002062
:1091C00000540040005800402DE9F84F464F474CEE
:1091D0009846002305460E4691463B7023604FF4A7
:1091E000003128460BF0A6F828B123680133B3F507
:1091F0007A7F2360F3D3DFF8FCA0DFF8FCB0012115
:1092000028460BF051F800232360514628460BF006
:109210007DF840F6B732002839D006F0FE0600226D
:10922000284631460BF058F8002323601A4640F6D2
:10923000B830A98A890735D503B122604946284646
:109240002B8B2B4E0BF05DF80023236040F6B739D3
:10925000314628460BF05AF878B3414628460BF0C1
:1092600050F8234E0023236040F6B7383146284695
:109270000BF04CF840B3012128460BF021F823688D
:1092800000222988890526D45ABBBDE8F88F2368B7
:10929000013393422360B8D901233B70BDE8F84FF6
:1092A000FFF77ABF013282424FF00103C1D1594624
:1092B000284622600BF058F8A1E7236801334B459C
:1092C0002360C5D90223E8E72368013343452360BF
:1092D000CCD90323E1E70133B3F57A7F4FF00102E4
:1092E000CFD32360D1E700BFDD0F0020E00F0020C7
:1092F00084000700010003000004021037B5044693
:1093000001920D460BF046F8094A019B127852B9BA
:1093100008482A462146FFF757FF042003B0BDE85E
:109320003040FEF731BF04482A462146F3E700BF2C
:10933000DC0F002000540040005800400A4601465F
:10934000A020FFF7DBBF00002DE9F84FDFF8C08158
:109350006D4D002304460F46914688F800302B607F
:109360004FF4003120460AF0E5FF28B12B680133A5
:10937000B3F57A7F2B60F3D3DFF898A1DFF898B1CB
:10938000012120460AF090FF00232B605146204621
:109390000AF0BCFF40F6B7320646002874D007F04A
:1093A000FE070022204639460AF096FF00232B6074
:1093B0001A4640F6B830A18A8E0773D503B12A60E9
:1093C000524B228B1A80494620460AF09AFFDFF85A
:1093D0004C9100232B6040F6B73A494620460AF0EC
:1093E00095FF0646002868D0002120460AF07DFF40
:1093F000DFF820A1DFF82891DFF81CB10121204619
:109400000AF052FF00232B60514620460AF07EFFEF
:1094100040F6B7320646002856D00122394620468B
:109420000AF05AFF00232B6040F6B7364946204623
:109430000AF080FF00284ED0002120460AF055FF98
:1094400072B601212046238B0AF03AFF62B6002350
:109450002B6041F2873720460AF064FF10F0400687
:1094600043D020460AF04FFF002306462B601A46E1
:1094700040F6B830218889053ED4002B41D1012126
:1094800020460AF032FF0AE02B68013393422B603A
:109490007FF67CAF012388F80030FFF77DFE304671
:1094A000BDE8F88F013282424FF0010383D1594663
:1094B00020462A600AF058FF62E72B6801335345C3
:1094C0002B608AD90223E6E72B68013393422B6095
:1094D0009AD90323DFE72B680133B3422B60A5D968
:1094E000594620460AF040FF88E72B680133BB420B
:1094F0002B60B0D90423CEE7013282424FF0010342
:10950000B8D12A60BBE700BFE00F0020DE0F0020CB
:10951000DD0F00200100030000040210840007009A
:109520000200001013B5044601910AF033FF064B08
:10953000019A1B7821462BB9044802B0BDE81040BF
:10954000FFF702BF0248F8E7DC0F0020005400409C
:10955000005800400146A020FFF7E4BF0F48037801
:10956000D3B10F4B1A88013292B21A801A8892B284
:10957000C72A0C4A94BF01210021C2F8A0120A4A4E
:109580001988128889B292B2914205D300220270E2
:109590001A80044BC3F8A022704700BFE80F0020D8
:1095A000E40F002000804242E60F0020394BD3F840
:1095B0001012394B10B5394C002952D11A780132AA
:1095C000D2B21A701A78092A07D919702378D807E5
:1095D00003D4237843F0010323702E4BD3F80C12ED
:1095E0002F4B002943D11A780132D2B21A701A785F
:1095F000092A07D919702378990703D4237843F0EF
:1096000002032370234BD3F80812264B002934D1D0
:109610001A780132D2B21A701A78092A07D9197049
:1096200023785A0703D4237843F0040323701E4B96
:10963000D3F80032012B1D4B25D11A780132D2B25A
:109640001A701A78092A08D900221A7023781B0781
:1096500003D4237843F008032370FFF77FFF2078BB
:1096600010BD00221A70237803F0FE03B4E7002235
:109670001A70237803F0FD03C3E700221A702378E1
:1096800003F0FB03D2E700221A70237803F0F703FC
:10969000E2E700BF00004242E90F0020ED0F00208A
:1096A000EA0F0020EB0F002000004042EC0F0020EA
:1096B00008B5012131200AF005FF164810230322C6
:1096C00004210AF0F7FC13481023032208210AF0B2
:1096D000F1FC102319460F4803220AF0EBFC0E4858
:1096E0002023032201210AF0E5FC012303220B4879
:1096F0004FF480710AF0DEFC094A0023C2F8A03260
:10970000084A1370084A1380084B4FF4FA721A8003
:1097100008BD00BF001002400000024000140240DB
:1097200000804242E80F0020E40F0020E60F0020F6
:109730000C4A0D4910B50024148013889BB2834253
:1097400000D310BD0C800B889BB2082B04D9138862
:1097500001339BB21380F0E70B8801339BB20B807F
:10976000F1E700BFF4100020F610002082B04FF0A7
:10977000D842ADF80600BDF806309BB2ADF8063011
:10978000BDF806309BB2A2F87E3002B0704782B0BE
:109790004FF0D842ADF80600BDF806309BB2ADF8E8
:1097A0000630BDF806309BB2A2F8803002B0704798
:1097B0004FF0D84382B0B3F880309BB2ADF806309A
:1097C000BDF8060080B202B0704708B5FFF7CEFFC3
:1097D0000520FFF7ADFFBDE80840FFF7E9BF000037
:1097E000034B1A894FF0D843A3F87E20704700BF7F
:1097F0001E11002038B50B4D04466889FFF7B6FFEF
:10980000200AFFF7C4FFE0B2FFF7C1FFA889FFF706
:10981000ADFF080AFFF7BBFFBDE83840C8B2FFF74D
:10982000B6BF00BF1E11002008B52F498B79012B50
:1098300007D1072829D8DFE800F02026222A1E2891
:10984000240D0138062820D8DFE800F015041B1984
:1098500021171D0040234FF0D8423620A2F87E0089
:10986000A2F880309B060A88488812D5904212D907
:1098700008804A800FE08023EDE7A023EBE7202358
:10988000E9E7C023E7E7E023E5E70023E3E7602318
:10989000E1E79042ECD34889FFF768FF0020FFF72B
:1098A00076FFFFF774FF08880138C0F30F20FFF739
:1098B0006EFF08880138C0B2FFF769FF8889FFF79B
:1098C00055FF0020FFF763FFFFF761FF488801386D
:1098D000C0F30F20FFF75BFF48880138BDE8084060
:1098E000C0B2FFF754BF00BF1E110020094A128802
:1098F000824208B50DD9084A12888A4209D9FFF771
:1099000079FFFFF76DFF054B1A884FF0D843A3F896
:10991000802008BD30110020321100201A110020D3
:10992000124B1B88834270B5044615461DD9104B57
:109930001B888B4219D90F4E7089FFF717FF200A39
:10994000FFF725FFE0B2FFF722FFB089FFF70EFF18
:10995000080AFFF71CFFC8B2FFF719FF4FF0D84302
:109960003289A3F87E20A3F8805070BD301100200A
:10997000321100201E11002010B52C231D4C30BBCD
:1099800023812A2363812B23A3814FF4A073238097
:10999000A0714FF4F073A288638049F281439A4228
:1099A00002D00020FFF740FFA179134A134BD9B929
:1099B0004FF4A07111804FF4F07112881980104992
:1099C0001B88D2080A800F4A1B09138010BD23810F
:1099D0002A2363812B230122A3814FF4F073238078
:1099E000A2714FF4A073D6E74FF4F07111804FF4D9
:1099F000A071E2E71E11002030110020321100207A
:109A00002C1100202E11002038B50A4B00211A8895
:109A10005C88054608465443FFF7ECFEFFF7E0FE7E
:109A20004FF0D843A14200D138BDA3F88050013196
:109A3000F8E700BF1E1100202DE9F04185B2541B4C
:109A40000134BDF818701E46A4B289B24FF0D84850
:109A5000B14201DDBDE8F0812846FFF7CBFEFFF7FC
:109A6000BFFE00239AB2944202D8013189B2EFE7D7
:109A7000A8F880700133F5E72DE9F04FA2EB00085C
:109A80001D46B8F1000F85B004460B46A5EB010951
:109A90001DDC1ED0A0EB02084FF0FF32B9F1000F21
:109AA00019DC1BD0A1EB05094FF0FF3BC845C246AE
:109AB000B8BFCA4600250AF101012F462E46019182
:109AC0000198A9B281420BDD05B0BDE8F08F0122FB
:109AD000E4E74246E2E74FF0010BE7E7CB46E5E774
:109AE00099B2A0B203920293FFF700FFDDE90232C0
:109AF0004644B2454F44BCBFA6EB0A06A418BA457B
:109B0000BCBFA7EB0A075B440135D9E72DE9F0415B
:109B10001C4606460D460B461746FFF7ADFF23468B
:109B2000324629463046FFF7A7FF23463A462146EC
:109B30003046FFF7A1FF23463A4629463846BDE89E
:109B4000F041FFF799BF2DE9F04F540085B016465C
:109B5000C4F1030400271FFA80F81FFA81F9B5B297
:109B600018FA87F2A9EB050B92B21FFA8BFB10468D
:109B7000BBB2594603920093FFF7B8FE009BA9EBD6
:109B8000030A08EB05001FFA8AFA80B251460290D8
:109B9000FFF7ACFE009B02984B449BB21946019321
:109BA000FFF7A4FE039A09EB050189B21046FFF7FF
:109BB0009DFE009BA8EB030292B210460092A8EB18
:109BC0000505FFF793FE019BADB219462846FFF746
:109BD0008DFE009A59461046FFF788FE51462846EA
:109BE000FFF784FE0137002CA9BFBB1B04EB8704E1
:109BF00004EB830406F1FF36B4BF06340A34BE42D8
:109C0000ADDA05B0BDE8F08F014B1880704700BF9A
:109C10001A110020014B1880704700BFF20F00207E
:109C200038B5034C25882280FFF77AFE258038BDA1
:109C30001A1100202DE9F0410C4F0D4DDFF83C804A
:109C40000646002417F8013B2888B8F80010334274
:109C50000CBF084B084B1A88FFF7E2FF2B88013432
:109C60000133082C2B80EDD1BDE8F081CC1802081F
:109C700036110020F20F00201A11002038110020A8
:109C8000A0F52C4010B54FF4137490FBF4F2931C24
:109C900099B204FB12021C2392FBF3F39BB2042B38
:109CA00016D803331C229BB290FBF2F45B0102FB3B
:109CB000140080B243EA812310286FEA434394BF23
:109CC000013002306FEA53439BB280B2184310BD9B
:109CD0000A2B01D80533E5E7102B94BF073309336E
:109CE000E0E70000B0F5304F4FEA102313D3C0B2C5
:109CF0009F2810D95033DBB2603003EB4302C3B26C
:109D000003EB4213054A12F8131002EB4303587891
:109D100040EA012070470020704700BF8CD0010846
:109D20001F282DE9F84F13D80D2804D1304B0022FD
:109D30001A80BDE8F88F0A28FBD12E4A2E481188D8
:109D400000884B1C9BB298421380F2D81180EDE73B
:109D5000284FDFF8C4903B88284E294D2949DFF869
:109D600090801B016FF00F0A4FEA401BA9F80030EA
:109D700006EB00160AFB00FA0BF1100B4401B8F8D1
:109D80000030DB000B80204B1B883BBB33782B70F3
:109D900015F8010BFFF74EFFB9F800301B4A1949BF
:109DA00001339542A9F8003006F10106E7D1B8F871
:109DB0000030174A013312889BB29A42A8F800304B
:109DC000B7D800230C49A8F800303B8809885A1CF2
:109DD00092B2914288BF13463B80AAE70D4B188888
:109DE00006EB0A0308B91B5DD1E713F80B30CEE789
:109DF000EE0F0020F00F00202E1100204CE3010890
:109E0000F810002036110020181100200811002041
:109E10002C11002034110020381100202DE9F84FBA
:109E20009C4B1B7803BBFFF75DFF9B4BC0F3842269
:109E300013F802C0C0F344121A4400F01F0092F855
:109E400020E01844AEF1020390F84010132B3AD8EA
:109E5000DFE803F03539350D350D353739350D3738
:109E6000370D350D37370D0DFFF70AFFDDE70127F9
:109E7000BCF1010F0EF1FF3302D0BCF1100F24D161
:109E8000002900F0D0804FF00208142B00F2C380AC
:109E9000DFE813F0FD00FD00FD00FD00FD00FD000A
:109EA000FD00FD00240026002600260024002100DD
:109EB000BC00BC00BC00210024002600FD000227DD
:109EC000D6E70327D4E70027D2E7002900F0DC809B
:109ED0004FF00308D9E7002900F09F80062203E035
:109EE000002900F09C8007226C4BDFF8D4910125FB
:109EF00000241E46BCF1000F0CD0694830F8120057
:109F0000604480B209EB401010F804A0405D83F873
:109F100000A05870BEF1000F14D0624893F800A062
:109F200030F81800704480B209EB401010F804B00B
:109F3000405D4AEA0B0A83F800A093F801A04AEAC0
:109F400000005870A1B1584893F800A030F81700ED
:109F5000084480B209EB401010F804B0405D4AEAB2
:109F60000B0A83F800A093F801A04AEA0000587099
:109F70000234202C03F1020305F10205BAD14B4F44
:109F80004B4C3B88DFF83C814A4D1B0123804FF04E
:109F900000092B8816F81900DB00A8F80030FFF73D
:109FA00049FE238809F101090133B9F1100F23801B
:109FB000EFD13B881B0123804FF000092B88013330
:109FC000DB00A8F8003006EB490309F101095878D5
:109FD000FFF730FE2388B9F1100F03F1010323804E
:109FE000ECD12B88344A023312889BB29A422B80E0
:109FF0000AD8002331492B803B8809885A1C92B229
:10A00000914288BF13463B80BDE8F88F00297FF45A
:10A010006AAF042268E7002266E7022264E70322AF
:10A0200062E7012260E78846142BF4D801A252F8B7
:10A0300023F000BF17A0000817A0000817A0000811
:10A0400017A0000817A0000817A0000817A0000814
:10A0500017A0000823A000081FA000081FA00008E8
:10A060001FA0000823A000081BA0000813A00008E0
:10A0700013A0000813A000081BA0000823A00008DC
:10A080001FA0000817A000084FF00108CCE7052228
:10A090002AE700BF1C1100204CEB0108F81000203B
:10A0A000AC180208BC180208C4180208F00F0020FF
:10A0B00038110020EE0F00202C1100202E1100205E
:10A0C000ACEB01083611002070B5054611F0B8FD63
:10A0D0000024C6B2B44200D370BD2A57285D002ABE
:10A0E000234604DBFFF71CFE0134E4B2F2E72B4405
:10A0F00001345B7843EA0020E4B2FFF78FFEF3E718
:10A100000CB413B50A4C04AA208052F8043B094C45
:10A110000948019201801946204601F035FE20468B
:10A12000FFF7D2FF02B0BDE8104002B0704700BF99
:10A13000EE0F0020F40F0020F00F0020014608B5BC
:10A140003620FFF713FB03290ED8DFE801F00207E2
:10A15000090B0A20BDE80840FFF719BB2820F9E7E2
:10A160000920F7E72B20F5E708BD000030B50121F5
:10A17000A1B07A200AF0A6F9012108460AF0AEF94A
:10A18000D248012303224FF4004109F093FFD04845
:10A1900012230322012109F08DFFCD48122303224F
:10A1A000022109F087FFCA4812230322102109F077
:10A1B00081FFC74812230322202109F07BFFC448F6
:10A1C000122303224FF4807109F074FFC048122358
:10A1D00003224FF4007109F06DFFBD4812230322E2
:10A1E0004FF4806109F066FFB948122303224FF44F
:10A1F000804109F05FFFB648122303224FF400416B
:10A2000009F058FFB34812230322802109F052FFBE
:10A21000B048122303224FF4807109F04BFFAD4880
:10A22000122303224FF4007109F044FFA9481223BE
:10A2300003224FF4806109F03DFFA6481223032258
:10A240004FF4006109F036FFA248122303224FF4B5
:10A25000805109F02FFF9F48122303224FF4005131
:10A2600009F028FF9B48122303224FF4804109F094
:10A2700021FF9848122303224FF4004109F01AFFEE
:10A280009548122303224FF4805109F013FF122343
:10A29000924803224FF4805109F00CFF8C480C22A5
:10A2A000002109F04AFF8A480C22012109F045FFEC
:10A2B00087480C22042109F040FF85480C22052123
:10A2C00009F03BFF82480C22082109F036FF804844
:10A2D0000C22092109F031FF7D480C220A2109F0E6
:10A2E0002CFF7B480C220E2109F027FF78480C2216
:10A2F0000F2109F022FF77480C22072109F01DFFEA
:10A3000074480C22082109F018FF72480C22092118
:10A3100009F013FF6F480C220A2109F00EFF6D4867
:10A320000C220B2109F009FF0C221146694809F0A3
:10A3300004FF68480C220D2109F0FFFE65480C223D
:10A340000E2109F0FAFE63480C220F2109F0F5FEF8
:10A350000C221146604809F0F0FE0C2211465F48BD
:10A3600009F0EBFE00240F23CDE903343C23CDE9B3
:10A3700005340923CDE90A340823CDE90C34102330
:10A38000CDE914344FF48053CDE91A344FF48043AF
:10A39000CDE91C3403AB06251E9311A80AAB1F930D
:10A3A000CDE90744CDE90E44CDE91154CDE9164479
:10A3B000CDE9184409941094139409F0D7FD0121B4
:10A3C000284609F025FE3220FDF7DEFE4FF0D84387
:10A3D0000122A3F87E403220A3F88020FDF7D4FEAE
:10A3E0002046FFF7F2F9A0F1FF033D4C9BB2B3F515
:10A3F0007F4FA08002D2B0F5134F74D1D320FFF766
:10A40000B5F9FFF7D5F9A080FFF7D2F9A080FFF7E3
:10A41000CFF90002A080FFF7CBF9A388184380B2E0
:10A4200049F241339842A0805DD0BF20FFF79EF9EA
:10A43000FFF7BEF9A080FFF7BBF9A080FFF7B8F9DE
:10A44000A080FFF7B5F90002A080FFF7B1F9A3885B
:10A45000184380B246F604039842A08043D0D4202B
:10A46000FFF784F9FFF7A4F9A080FFF7A1F9A08016
:10A47000FFF79EF90002A080FFF79AF9A38818431E
:10A4800080B245F210339842A0802CD04FF45A404D
:10A49000FFF76CF9FFF78CF9A0804FF45B40FFF7F2
:10A4A00065F9FFF785F90002A0804FF45C40FFF7E3
:10A4B0005DF9FFF77DF9A388184380B2B0F5004F2E
:10A4C000A08045F2105341F02A800BE000040240C6
:10A4D000000C02400010024000140240001802402C
:10A4E0001E110020A3800C4BDA6922F00F02DA6102
:10A4F000DA6922F47062DA61DA6942F00302DA6141
:10A50000DA6942F40072DA61A28845F210339A42A5
:10A5100040F0288702E000BF000100A0ED20FFF717
:10A5200025F90120FFF733F9FE20FFF730F9EE207F
:10A53000FFF71CF9DE20FFF72AF92120FFF727F9A2
:10A54000F120FFF713F90120FFF721F9DF20FFF7D2
:10A550000DF91020FFF71BF9C420FFF707F98F2032
:10A56000FFF715F9C620FFF701F90020FFF70FF9F3
:10A57000E220FFF70CF9FFF70AF9FFF708F9BF200F
:10A58000FFF7F4F8AA20FFF702F9B020FFF7EEF882
:10A590000D20FFF7FCF80020FFF7F9F80D20FFF77A
:10A5A000F6F80020FFF7F3F81120FFF7F0F800208D
:10A5B000FFF7EDF81920FFF7EAF80020FFF7E7F8BA
:10A5C0002120FFF7E4F80020FFF7E1F82D20FFF746
:10A5D000DEF80020FFF7DBF83D20FFF7D8F8002079
:10A5E000FFF7D5F85D20FFF7D2F80020FFF7CFF88E
:10A5F0005D20FFF7CCF80020FFF7C9F8B120FFF786
:10A60000B5F88020FFF7C3F80020FFF7C0F88B20D3
:10A61000FFF7BDF80020FFF7BAF89620FFF7B7F86C
:10A620000020FFF7B4F8B220FFF7A0F80020FFF7F2
:10A63000AEF8FFF7ACF80220FFF7A9F80020FFF70B
:10A64000A6F80320FFF7A3F80020FFF7A0F8B32037
:10A65000FFF78CF80020FFF79AF8FFF798F8FFF75C
:10A6600096F8FFF794F8FFF792F8FFF790F8FFF7E6
:10A670008EF8FFF78CF8FFF78AF8FFF788F8FFF7F6
:10A6800086F8FFF784F8FFF782F8FFF780F8FFF706
:10A690007EF8FFF77CF8FFF77AF8FFF778F8FFF716
:10A6A00076F8FFF774F8FFF772F8FFF770F8FFF726
:10A6B0006EF8FFF76CF8B420FFF758F88B20FFF71F
:10A6C00066F80020FFF763F89620FFF760F8002097
:10A6D000FFF75DF8A120FFF75AF80020FFF757F8C1
:10A6E000B520FFF743F80220FFF751F80020FFF7ED
:10A6F0004EF80320FFF74BF80020FFF748F804203E
:10A70000FFF745F80020FFF742F8B620FFF72EF8D4
:10A710000020FFF73CF8FFF73AF8B720FFF726F8DC
:10A720000020FFF734F8FFF732F83F20FFF72FF84B
:10A730000020FFF72CF85E20FFF729F80020FFF734
:10A7400026F86420FFF723F80020FFF720F88C207C
:10A75000FFF71DF80020FFF71AF8AC20FFF717F8F5
:10A760000020FFF714F8DC20FFF711F80020FFF7B6
:10A770000EF87020FFF70BF80020FFF708F8902084
:10A78000FFF705F80020FFF702F8EB20FEF7FFFFC8
:10A790000020FEF7FCFFDC20FEF7F9FF0020FEF7AB
:10A7A000F6FFB820FEF7E2FF0020FEF7F0FFFEF70D
:10A7B000EEFFFEF7ECFFFEF7EAFFFEF7E8FFFEF71D
:10A7C000E6FFFEF7E4FFFEF7E2FFBA20FEF7CEFF5A
:10A7D0002420FEF7DCFF0020FEF7D9FFFEF7D7FFAD
:10A7E000FEF7D5FFC120FEF7C1FF2020FEF7CFFF07
:10A7F0000020FEF7CCFF5420FEF7C9FF0020FEF733
:10A80000C6FFFF20FEF7C3FF0020FEF7C0FFC220F7
:10A81000FEF7ACFF0A20FEF7BAFF0020FEF7B7FFF5
:10A820000420FEF7B4FF0020FEF7B1FFC320FEF7BF
:10A830009DFF3C20FEF7ABFF0020FEF7A8FF3A206B
:10A84000FEF7A5FF0020FEF7A2FF3920FEF79FFFCD
:10A850000020FEF79CFF3720FEF799FF0020FEF74F
:10A8600096FF3C20FEF793FF0020FEF790FF362076
:10A87000FEF78DFF0020FEF78AFF3220FEF787FFEC
:10A880000020FEF784FF2F20FEF781FF0020FEF757
:10A890007EFF2C20FEF77BFF0020FEF778FF2920AB
:10A8A000FEF775FF0020FEF772FF2620FEF76FFF10
:10A8B0000020FEF76CFF2420FEF769FF0020FEF762
:10A8C00066FF2420FEF763FF0020FEF760FF2320D1
:10A8D000FEF75DFF0020FEF75AFF3C20FEF757FF12
:10A8E0000020FEF754FF3620FEF751FF0020FEF750
:10A8F0004EFF3220FEF74BFF0020FEF748FF2F20CF
:10A90000FEF745FF0020FEF742FF2C20FEF73FFF39
:10A910000020FEF73CFF2920FEF739FF0020FEF75C
:10A9200036FF2620FEF733FF0020FEF730FF2420FD
:10A93000FEF72DFF0020FEF72AFF2420FEF727FF59
:10A940000020FEF724FF2320FEF721FF0020FEF762
:10A950001EFFC420FEF70AFF6220FEF718FF00204A
:10A96000FEF715FF0520FEF712FF0020FEF70FFF90
:10A970008420FEF70CFF0020FEF709FFF020FEF711
:10A9800006FF0020FEF703FF1820FEF700FF00205F
:10A99000FEF7FDFEA420FEF7FAFE0020FEF7F7FE0C
:10A9A0001820FEF7F4FE0020FEF7F1FE5020FEF71F
:10A9B000EEFE0020FEF7EBFE0C20FEF7E8FE002086
:10A9C000FEF7E5FE1720FEF7E2FE0020FEF7DFFEB1
:10A9D0009520FEF7DCFE0020FEF7D9FEF320FEF7FF
:10A9E000D6FE0020FEF7D3FEE620FEF7D0FE0020C4
:10A9F000FEF7CDFEC520FEF7B9FE3220FEF7C7FEFA
:10AA00000020FEF7C4FE4420FEF7C1FE0020FEF742
:10AA1000BEFE6520FEF7BBFE0020FEF7B8FE7620E6
:10AA2000FEF7B5FE0020FEF7B2FE8820FEF7AFFE6F
:10AA30000020FEF7ACFEC620FEF798FE2020FEF7B1
:10AA4000A6FE0020FEF7A3FE1720FEF7A0FE0020C2
:10AA5000FEF79DFE0120FEF79AFE0020FEF797FE0E
:10AA6000C720FEF783FE0020FEF791FEFEF78FFE63
:10AA7000FEF78DFEFEF78BFEC820FEF777FE002066
:10AA8000FEF785FEFEF783FEFEF781FEFEF77FFEF2
:10AA9000C920FEF76BFE0020FEF779FEFEF777FE79
:10AAA000FEF775FEFEF773FEFEF771FEFEF76FFE12
:10AAB000FEF76DFEFEF76BFEFEF769FEFEF767FE22
:10AAC000FEF765FEFEF763FEFEF761FEFEF75FFE32
:10AAD000FEF75DFEFEF75BFEE020FEF747FE162068
:10AAE000FEF755FE0020FEF752FE1C20FEF74FFE3B
:10AAF0000020FEF74CFE2120FEF749FE0020FEF765
:10AB000046FE3620FEF743FE0020FEF740FE4620BC
:10AB1000FEF73DFE0020FEF73AFE5220FEF737FE1C
:10AB20000020FEF734FE6420FEF731FE0020FEF721
:10AB30002EFE7A20FEF72BFE0020FEF728FE8B204B
:10AB4000FEF725FE0020FEF722FE9920FEF71FFEED
:10AB50000020FEF71CFEA820FEF719FE0020FEF7DD
:10AB600016FEB920FEF713FE0020FEF710FEC420EB
:10AB7000FEF70DFE0020FEF70AFECA20FEF707FED4
:10AB80000020FEF704FED220FEF701FE0020FEF7B3
:10AB9000FEFDD920FEF7FBFD0020FEF7F8FDE020CA
:10ABA000FEF7F5FD0020FEF7F2FDF320FEF7EFFDC6
:10ABB0000020FEF7ECFDE120FEF7D8FD1620FEF7A1
:10ABC000E6FD0020FEF7E3FD1C20FEF7E0FD00207F
:10ABD000FEF7DDFD2220FEF7DAFD0020FEF7D7FDAF
:10ABE0003620FEF7D4FD0020FEF7D1FD4520FEF70C
:10ABF000CEFD0020FEF7CBFD5220FEF7C8FD002061
:10AC0000FEF7C5FD6420FEF7C2FD0020FEF7BFFD84
:10AC10007A20FEF7BCFD0020FEF7B9FD8B20FEF781
:10AC2000B6FD0020FEF7B3FD9920FEF7B0FD002031
:10AC3000FEF7ADFDA820FEF7AAFD0020FEF7A7FD58
:10AC4000B920FEF7A4FD0020FEF7A1FDC420FEF709
:10AC50009EFD0020FEF79BFDCA20FEF798FD002018
:10AC6000FEF795FDD220FEF792FD0020FEF78FFD46
:10AC7000D820FEF78CFD0020FEF789FDE020FEF7CE
:10AC800086FD0020FEF783FDF320FEF780FD002007
:10AC9000FEF77DFDE220FEF769FD0520FEF777FD5A
:10ACA0000020FEF774FD0B20FEF771FD0020FEF77B
:10ACB0006EFD1B20FEF76BFD0020FEF768FD3420C3
:10ACC000FEF765FD0020FEF762FD4420FEF75FFD04
:10ACD0000020FEF75CFD4F20FEF759FD0020FEF737
:10ACE00056FD6120FEF753FD0020FEF750FD792050
:10ACF000FEF74DFD0020FEF74AFD8820FEF747FDD8
:10AD00000020FEF744FD9720FEF741FD0020FEF7EE
:10AD10003EFDA620FEF73BFD0020FEF738FDB720E4
:10AD2000FEF735FD0020FEF732FDC220FEF72FFDB5
:10AD30000020FEF72CFDC720FEF729FD0020FEF7BE
:10AD400026FDD120FEF723FD0020FEF720FDD620B2
:10AD5000FEF71DFD0020FEF71AFDDD20FEF717FDB2
:10AD60000020FEF714FDF320FEF711FD0020FEF792
:10AD70000EFDE320FEF7FAFC0520FEF708FD00209B
:10AD8000FEF705FD0A20FEF702FD0020FEF7FFFC9E
:10AD90001C20FEF7FCFC0020FEF7F9FC3320FEF738
:10ADA000F6FC0020FEF7F3FC4420FEF7F0FC002048
:10ADB000FEF7EDFC5020FEF7EAFC0020FEF7E7FC72
:10ADC0006220FEF7E4FC0020FEF7E1FC7820FEF7AD
:10ADD000DEFC0020FEF7DBFC8820FEF7D8FC00201C
:10ADE000FEF7D5FC9720FEF7D2FC0020FEF7CFFC43
:10ADF000A620FEF7CCFC0020FEF7C9FCB720FEF72A
:10AE0000C6FC0020FEF7C3FCC220FEF7C0FC0020F9
:10AE1000FEF7BDFCC720FEF7BAFC0020FEF7B7FC2A
:10AE2000D120FEF7B4FC0020FEF7B1FCD520FEF7E0
:10AE3000AEFC0020FEF7ABFCDD20FEF7A8FC0020F6
:10AE4000FEF7A5FCF320FEF7A2FC0020FEF79FFC16
:10AE5000E420FEF78BFC0120FEF799FC0020FEF7B2
:10AE600096FC0120FEF793FC0020FEF790FC0220E8
:10AE7000FEF78DFC0020FEF78AFC2A20FEF787FCF7
:10AE80000020FEF784FC3C20FEF781FC0020FEF74A
:10AE90007EFC4B20FEF77BFC0020FEF778FC5D205B
:10AEA000FEF775FC0020FEF772FC7420FEF76FFCC5
:10AEB0000020FEF76CFC8420FEF769FC0020FEF702
:10AEC00066FC9320FEF763FC0020FEF760FCA220E6
:10AED000FEF75DFC0020FEF75AFCB320FEF757FC9E
:10AEE0000020FEF754FCBE20FEF751FC0020FEF7C8
:10AEF0004EFCC420FEF74BFC0020FEF748FCCD20A2
:10AF0000FEF745FC0020FEF742FCD320FEF73FFC95
:10AF10000020FEF73CFCDD20FEF739FC0020FEF7A8
:10AF200036FCF320FEF733FC0020FEF730FCE52072
:10AF3000FEF71CFC0020FEF72AFCFEF728FCFEF7BB
:10AF400026FCFEF724FC0220FEF721FC0020FEF781
:10AF50001EFC2920FEF71BFC0020FEF718FC3C20FD
:10AF6000FEF715FC0020FEF712FC4B20FEF70FFC4D
:10AF70000020FEF70CFC5D20FEF709FC0020FEF728
:10AF800006FC7420FEF703FC0020FEF700FC842082
:10AF9000FEF7FDFB0020FEF7FAFB9320FEF7F7FB20
:10AFA0000020FEF7F4FBA220FEF7F1FB0020FEF7E5
:10AFB000EEFBB320FEF7EBFB0020FEF7E8FBBE2024
:10AFC000FEF7E5FB0020FEF7E2FBC420FEF7DFFB07
:10AFD0000020FEF7DCFBCD20FEF7D9FB0020FEF7BA
:10AFE000D6FBD320FEF7D3FB0020FEF7D0FBDC20FE
:10AFF000FEF7CDFB0020FEF7CAFBF320FEF7C7FBF0
:10B000000020FEF7C4FBE620FEF7B0FB1120FEF7A0
:10B01000BEFB0020FEF7BBFB3420FEF7B8FB002090
:10B02000FEF7B5FB5620FEF7B2FB0020FEF7AFFBA4
:10B030007620FEF7ACFB0020FEF7A9FB7720FEF799
:10B04000A6FB0020FEF7A3FB6620FEF7A0FB002076
:10B05000FEF79DFB8820FEF79AFB0020FEF797FB8A
:10B060009920FEF794FB0020FEF791FBBB20FEF732
:10B070008EFB0020FEF78BFB9920FEF788FB00205B
:10B08000FEF785FB6620FEF782FB0020FEF77FFBC4
:10B090005520FEF77CFB0020FEF779FB5520FEF7DC
:10B0A00076FB0020FEF773FB4520FEF770FB0020C7
:10B0B000FEF76DFB4320FEF76AFB0020FEF767FBFF
:10B0C0004420FEF764FB0020FEF761FBE720FEF75B
:10B0D0004DFB3220FEF75BFB0020FEF758FB5520AE
:10B0E000FEF755FB0020FEF752FB7620FEF74FFBE4
:10B0F0000020FEF74CFB6620FEF749FB0020FEF720
:10B1000046FB6720FEF743FB0020FEF740FB67206D
:10B11000FEF73DFB0020FEF73AFB8720FEF737FBEA
:10B120000020FEF734FB9920FEF731FB0020FEF7EC
:10B130002EFBBB20FEF72BFB0020FEF728FB9920FF
:10B14000FEF725FB0020FEF722FB7720FEF71FFB12
:10B150000020FEF71CFB4420FEF719FB0020FEF741
:10B1600016FB5620FEF713FB0020FEF710FB2320F2
:10B17000FEF70DFB0020FEF70AFB3320FEF707FB6E
:10B180000020FEF704FB4520FEF701FB0020FEF740
:10B19000FEFAE820FEF7EAFA0020FEF7F8FAFEF7DA
:10B1A000F6FA9920FEF7F3FA0020FEF7F0FA87206E
:10B1B000FEF7EDFA0020FEF7EAFA8820FEF7E7FA3C
:10B1C0000020FEF7E4FA7720FEF7E1FA0020FEF710
:10B1D000DEFA6620FEF7DBFA0020FEF7D8FA8820B8
:10B1E000FEF7D5FA0020FEF7D2FAAA20FEF7CFFA32
:10B1F0000020FEF7CCFABB20FEF7C9FA0020FEF7CC
:10B20000C6FA9920FEF7C3FA0020FEF7C0FA6620BE
:10B21000FEF7BDFA0020FEF7BAFA5520FEF7B7FA9E
:10B220000020FEF7B4FA5520FEF7B1FA0020FEF731
:10B23000AEFA4420FEF7ABFA0020FEF7A8FA44204D
:10B24000FEF7A5FA0020FEF7A2FA5520FEF79FFAB6
:10B250000020FEF79CFAE920FEF788FAAA20FEF704
:10B2600096FA0020FEF793FAFEF791FAFEF78FFAAE
:10B27000FEF77CFAAA20FEF78AFACF20FEF776FACC
:10B280000020FEF784FAFEF782FAFEF780FAFEF756
:10B290007EFAFEF77CFAFEF77AFAFEF778FAFEF706
:10B2A00076FAFEF774FAFEF772FAFEF770FAFEF716
:10B2B0006EFAFEF76CFAFEF76AFAFEF768FAFEF726
:10B2C00066FAFEF764FAF020FEF750FA0020FEF767
:10B2D0005EFA5020FEF75BFA0020FEF758FAFEF700
:10B2E00056FAFEF754FAF320FEF740FA0020FEF774
:10B2F0004EFAF920FEF73AFA0620FEF748FA102037
:10B30000FEF745FA2920FEF742FA0020FEF73FFA41
:10B310003A20FEF72BFA5520FEF739FA1120FEF7F6
:10B3200025FA6420FCF730FF2920FEF71FFA3520AC
:10B33000FEF71CFA0020FEF72AFA5120FEF716FA53
:10B34000FF20FEF724FA5320FEF710FA2C20FEF718
:10B350001EFA5520FEF70AFA8220FEF718FA2C2072
:10B36000FEF704FAA28849F281439A4240F09380A2
:10B370000120FEF7FBF97820FCF706FF1120FEF70D
:10B38000F5F97820FCF700FF3A20FEF7EFF9552099
:10B39000FEF7FDF9C220FEF7E9F94420FEF7F7F9C0
:10B3A000C520FEF7E3F90020FEF7F1F9FEF7EFF90B
:10B3B000FEF7EDF9FEF7EBF9E020FEF7D7F90F20E5
:10B3C000FEF7E5F91F20FEF7E2F91C20FEF7DFF992
:10B3D0000C20FEF7DCF90F20FEF7D9F90820FEF764
:10B3E000D6F94820FEF7D3F99820FEF7D0F9372098
:10B3F000FEF7CDF90A20FEF7CAF91320FEF7C7F9C8
:10B400000420FEF7C4F91120FEF7C1F90D20FEF764
:10B41000BEF90020FEF7BBF9E120FEF7A7F90F20E7
:10B42000FEF7B5F93220FEF7B2F92E20FEF7AFF99C
:10B430000B20FEF7ACF90D20FEF7A9F90520FEF769
:10B44000A6F94720FEF7A3F97520FEF7A0F93720EB
:10B45000FEF79DF90620FEF79AF91020FEF797F9FE
:10B460000320FEF794F92420FEF791F92020FEF73F
:10B470008EF90020FEF78BF92020FEF777F93620B1
:10B48000FEF774F94820FEF782F92920FEF76EF9DD
:10B490009620FCF779FE0020FEF76EFAA28849F2AA
:10B4A00081439A4202D10020FEF748FE394B012227
:10B4B000C3F8BC22A179384A384B002963D14FF434
:10B4C000A07111804FF4F0711980354912881B88E2
:10B4D00000250D8033490D8033490D8033490D809F
:10B4E00033490D703349D2080A80334A1B0913804F
:10B4F00000F060FC314B4FF6FF721A80304B28464B
:10B500001D80FEF781FA6388019323880093A38846
:10B510002C4A29462846FEF7F3FD21B030BD98425B
:10B520003EF4E1AFA120FEF721F9FEF741F9A0803A
:10B53000FEF73EF90002A080FEF73AF9A38818430F
:10B5400080B245F261739842A08041F663133EF4E5
:10B55000C9AF98423EF4C7AFBF20FEF707F9FEF728
:10B5600027F9A080FEF724F9A080FEF721F9A0803A
:10B57000FEF71EF90002A080FEF71AF9A38818430F
:10B58000A080FEF7B0BF4FF4F07111804FF4A071AE
:10B590009AE700BF008040423011002032110020A5
:10B5A000EE0F0020F00F00203411002018110020B1
:10B5B0001C1100202C1100202E1100201A11002037
:10B5C000F20F002071D001080B6803F8010BC0B224
:10B5D0000B607047002070472DE9F04F91B01D4679
:10B5E000002381468B4690460193DA461AF8014BB8
:10B5F00054B9AB6A48469847019B002818BF2346B8
:10B60000184611B0BDE8F08F252C0AD06B6A494668
:10B6100020469847019B013301934646D346B046E6
:10B62000E3E700240DE02D2B04D0302B13D144F49C
:10B63000807405E024F4807424F0010444F00104D3
:10B64000DA46D3461BF8013B2B2B23D0EBD8202B1B
:10B6500023D0232B24D02A2B2ED158F8047B9BF8FF
:10B660000030002FBCBF7F4284F001040AF1020BBE
:10B670002E2B2DD19BF800302A2B20D00BF101016D
:10B6800000220A26A3F13000092856D944F01004FC
:10B69000AA601CE044F00204D2E744F00404CFE7BF
:10B6A00044F00804CCE71BF8013B01FB0727A3F19A
:10B6B0003002092AF7D9DBE700270A21F7E758F813
:10B6C000042B9BF80130002A0BF10201DEDA8B46D5
:10B6D00023F020024C2A35D19BF8003003F0DF0222
:10B6E0004C2A03BF9BF8013044F040040BF1020BDD
:10B6F0000BF1010B18BF44F02004782B74DC572B9E
:10B7000029DC002B00F0B18023F00202452A6BD126
:10B71000E0065CBF0622AA60A20744F4007108F1AB
:10B72000040600F1D881B648B64A14F0040F08BFE9
:10B7300002460C466A6000213FE111F8013B06FB1E
:10B7400002029FE7682B01BF594644F0800411F8BC
:10B75000013B8B46D1E7A3F15802202A44D801A12E
:10B7600051F822F031B90008E9B70008E9B700083C
:10B77000E9B70008E9B70008E9B70008E9B7000829
:10B78000E9B70008E9B70008E9B70008E9B7000819
:10B79000E9B700087DBA000811B7000811B7000822
:10B7A00011B70008E9B700087DBA0008E9B700083A
:10B7B000E9B70008E9B70008E9B7000873B800085E
:10B7C0001DBA00089BB90008E9B70008E9B70008EE
:10B7D00095B80008E9B700084BBA0008E9B70008B7
:10B7E000E9B700086BB90008464614F0010A56F89C
:10B7F000042B07F1FF3818D114F4807F14BF3024D4
:10B800002024B8F101086B6A1CD5012F3B46019931
:10B81000B8BF0123013B002FC7F101081944D8BF6D
:10B820004FF00008023F0191B8446B6A4946104648
:10B830009847019B01330193BAF1000F3FF4EFAE3B
:10B84000444609E04946204602929847029AD8E7C2
:10B850006B6A494620209847013CF9D5019BB8F115
:10B86000000FA8BF43440193D9E60BF1FF3B4646C6
:10B87000D5E62006D8F80030019A08F1040601D573
:10B880001A80CCE6610649BF01991A60D217C3E954
:10B890000012C4E64646E30656F804AB0AD5AB6888
:10B8A0004FF00008984509DA1AF8082032B108F17B
:10B8B0000108F7E7504610F0C3F9804614F0010381
:10B8C000A7EB080702930ED114F4807F14BF302336
:10B8D00020233C46013C13D5019A27EAE7731A441A
:10B8E000013F0192FF1A0AEB080454450FD1019B56
:10B8F00043440193029B002B3FF491AE3C4610E081
:10B9000018466A6A039349469047039BE2E76B6ACD
:10B910001AF8010B49469847E7E76B6A4946202029
:10B920009847013CF9D5019B002FA8BFDB199AE786
:10B93000660643BF08F1070626F00706F6E802018F
:10B940004646314A58BF56F8041BEA6248BFC5E96B
:10B950000E012E4A48BF0021200648BF89B214F0CC
:10B96000080F274808BF024682E0610643BF08F17E
:10B97000070626F00706F6E8020146464ABFC5E973
:10B980000E0156F8041B00212206214AEA6248BF34
:10B9900089B2204A14F0080FE3E719481C4A4646CA
:10B9A00014F0080F56F8041BEA621B4A08BF02464F
:10B9B0006A600822AA6044F010044FF0FF3214F4C9
:10B9C000047FC5E9032204BF0122AA606E2B2F6306
:10B9D0002C6000F38280642B00F03881692B00F02A
:10B9E0003581582B00F0948030232E228DF82030A2
:10B9F0008DF821208DF822304FF003089FE000BF22
:10BA00009233040891330408DE180208D41802089F
:10BA1000EF180208D7180208DA180208660643BFB2
:10BA200008F1070626F00706F6E8020146464CBF75
:10BA3000C5E90E0156F8041BAE4A48BF0021200696
:10BA400048BF89B214F0080F8BE7610643BF08F1C5
:10BA5000070626F00706F6E8020146464ABFC5E992
:10BA60000E0156F8041B00212206A34A48BF89B2E2
:10BA70006A60E206A1D524F480749EE760061BD5B7
:10BA800008F1070828F007084646D8F8042056F8B9
:10BA9000081B002A08DBC5E90E120021A00718D4F4
:10BAA000964A14F0040F5CE7494262EB4202C5E992
:10BAB0000E120021924ADBE74646210656F8042B77
:10BAC00048BF12B282EAE271002AA1EBE271E5DA24
:10BAD000F0E78C4ACCE78B4A2BE66F3B092B83D8E7
:10BAE00001A252F823F000BFF9BB000811BB000807
:10BAF000E9B90008E9B90008E9B90008E9B900089E
:10BB00004DBC0008E9B90008E9B9000811BB0008FC
:10BB100014F040080BD108AB89B101F00F02E86ABC
:10BB2000825C03F8012B08F101080909F4E7D5E963
:10BB30000E3108AA4FF0000853EA01004ED114F468
:10BB40000073059308BFAB68686806BFA3EB0803E2
:10BB500023EAE3730023029310F072F8029B381A71
:10BB600008EB030704F00103049340F201131C42A5
:10BB7000A0EB070700F0AC8000226B68D21A03EB41
:10BB8000020A13F8011B0391002940F0A380049BD3
:10BB90006BB914F4807F14BF302320233C46013C52
:10BBA00040F1A18027EAE773013F9A44FF1A059B01
:10BBB000002B40F0C480029C013C80F0D480029BAA
:10BBC00053449A46C244B8F10108C0F0BB8008AAA9
:10BBD0006B6A12F8080049469847F4E703F00F0C27
:10BBE000E86A1B0910F80C0002F8010B43EA017324
:10BBF00008F1010809099FE714F040080AD108ABD1
:10BC000081B101F00702303203F8012B08F101087D
:10BC1000C908F5E7D5E90E3108AA4FF0000853EA44
:10BC2000010005D123078AD5AB68013BAB6086E7ED
:10BC300003F0070CE86ADB0810F80C0002F8010BAF
:10BC400043EA417308F10108C908E8E714F0400825
:10BC50000FD108AB0A2200293FF471AFB1FBF2F01B
:10BC600002FB1011303103F8011B08F101080146F5
:10BC7000F1E7AB6B0293D5F83CA008AB03934FF010
:10BC80000008029B53EA0A033FF459AF0298514659
:10BC90000A22002311F012F8039B0298303203F8B5
:10BCA000012B514603930A22002311F007F808F1F3
:10BCB000010802908A46E4E76B6A494620209847CB
:10BCC000BAF1010AF8D527EAE772013FBF1A54E733
:10BCD000BA46F5E7CDE9063203986B6A49469847BC
:10BCE000DDE906324BE718466A6A069349469047F3
:10BCF000069B54E7DC1802089233040891330408C9
:10BD0000C3190208D7190208039B08AAD05C3C2873
:10BD10000DD03E2821D06B6A494698470AF1010AA6
:10BD20000AE06B6A494630200AF1010A9847EB683D
:10BD3000013B002BEB60F4DA039B01330393039B7D
:10BD40009845E1D1049BEBB9019B53448BE56B6AA9
:10BD5000494630200AF1010A98472B69013B002B24
:10BD60002B61F4DAE8E76B6A49463020984723E70D
:10BD70006B6A494620209847013CF9D5002FA8BF9F
:10BD8000BA44E1E73C46F7E710B592B0074B0B9396
:10BD9000074B0C930024019002AB01A80A94FFF713
:10BDA0001BFC019B1C7012B010BD00BFC9B5000880
:10BDB000D5B500082DE9F04F314B1F88314B87B0C6
:10BDC000B3F800801F23ADF80A304FF4FC63ADF8E0
:10BDD0000C3040F2FF73ADF80E304FF47843ADF8FD
:10BDE00010304FF61F03ADF812304FF6E073002607
:10BDF000ADF814304FF6FF73ADF80860ADF81630AB
:10BE00004FEA570B4FEA580A08F0C4FA06AA06F0A0
:10BE1000070302EB4303013633F8100CFDF7F4FE81
:10BE20000FF0E6FD90FBF7F404FB17040FF0E0FDC4
:10BE300090FBF8F505FB18050FF0DAFD81460FF0D1
:10BE4000D7FDA5EB0A05ADB290FBF8F30E4903FB55
:10BE50001800A4EB0B04A4B22B1899FBF7F007FB16
:10BE600010920988009122441BB212B229B220B26A
:10BE7000FDF7E2FDB6F57A7FC6D107B0BDE8F08FD9
:10BE800030110020321100201A1100202DE9F04F4E
:10BE900085B005464FF478400E4614460393BDF82E
:10BEA00038A0BDF83CB0BDF84080BDF84490BDF866
:10BEB0004870FDF7A9FE164A07210120FEF720F978
:10BEC0002B46144A009608210120FEF719F9039B1E
:10BED0000093114A234609210120FEF711F9534628
:10BEE0000E4ACDF800B00A210120FEF709F94346B9
:10BEF0000B4ACDF800900B210120FEF701F9094A09
:10BF00003B460C21012005B0BDE8F04FFEF7F8B824
:10BF1000001902080D1902081A1902082719020847
:10BF2000341902084119020838B52F4D2DED028B46
:10BF300095ED067A9FED2D8A27EE087A2820FDEEF2
:10BF4000C77A17EE904AE1B2FDF7F8F9C4F307217A
:10BF50002920FDF7F3F9C4F307412A20FDF7EEF994
:10BF6000210E2B20FDF7EAF9D5ED077A67EE887AE6
:10BF70002C20FDEEE77A17EE904AE1B2FDF7DEF9EC
:10BF8000C4F307212D20FDF7D9F9C4F307412E2072
:10BF9000FDF7D4F9210E2F20FDF7D0F9B5F9204097
:10BFA00095F820103020FDF7C9F9C4F3072131209E
:10BFB000FDF7C4F9B5F9224095F822103220FDF7BB
:10BFC000BDF9C4F307213320FDF7B8F995F8241023
:10BFD0003420FDF7B3F9BDEC028BAA21BDE838404F
:10BFE0003520FDF7ABB900BF4011002020BCBE4C8E
:10BFF00038B535202DED028BFDF7ACFAAA2867D1B4
:10C000002820FDF7A7FA002460F307042920FDF794
:10C01000A1FA60F30F242A20FDF79CFA60F317447D
:10C020002B20FDF797FA60F31F6407EE904A9FED0F
:10C03000298A294DB8EEE77A2C20C7EE087AC5ED9B
:10C04000067AFDF787FA60F307042D20FDF782FAE0
:10C0500060F30F242E20FDF77DFA60F317442F20A4
:10C06000FDF778FA60F31F6407EE904AF8EEE77A7E
:10C07000302087EE887A4FF0000485ED077AFDF7CF
:10C0800069FA60F307043120FDF764FA60F30F24C6
:10C0900032202C84FDF75EFA60F307043320FDF7AD
:10C0A00059FA60F30F2434206C84FDF753FA0B4ADD
:10C0B0000B4B85F8240038B190211170D0221A70F2
:10C0C0000120BDEC028B38BDD02111709022F6E723
:10C0D0000020F6E720BCBE4C4011002001000020EB
:10C0E000020000202DE9F0410E4E044608254FF0D5
:10C0F000000801270C4B14F0800F14BFC3F8AC727A
:10C10000C3F8AC820120C6F88082013DFDF710FB28
:10C11000640015F0FF05E4B2C6F88072EAD1BDE80C
:10C12000F08100BF00804042008042422DE9F04192
:10C130001B4B1C4D0024C5F88042C3F8AC42A3F54C
:10C14000C0330127C3F8B442FFF7CCFF0620FDF748
:10C15000EFFA0120C5F88042FDF7EAFAC5F88072CF
:10C160003846FDF7E5FA1026C5F88042A046C5F826
:10C1700080820120FDF7DCFAC5F88072D5F808321C
:10C180006400A4B20BB10134A4B2013E16F0FF0664
:10C19000EDD1054B0122C3F8B4222009BDE8F0819E
:10C1A000008042420080404200004142F0B585B02C
:10C1B00001AD06462F4605243046FFF7B7FF013C88
:10C1C000A4B227F8020B002CF6D10134A4B2294600
:10C1D00002352A462346088832F8026B0133B04202
:10C1E0009BB284BF0E8022F8020C052BF3D1042CE5
:10C1F000EBD1BDF80800BDF806300344BDF80A00D5
:10C2000010FA83F39BB20320B3FBF0F005B0F0BD4E
:10C2100070B5074B054618780C46FFF7C7FF054B6E
:10C2200006461878FFF7C2FF2E802080012070BDDF
:10C23000010000200200002073B506460D46684646
:10C240000DF10201FFF7E4FF10B9002002B070BD4C
:10C250000DF1060101A8FFF7DBFF0028F5D0BDF8BE
:10C260000410BDF80020914205D801F1310393423A
:10C2700005DA9142E9D102F131038B42E5DBBDF8E9
:10C280000640BDF802309C4205D804F131009842C6
:10C2900005DA9C42D9D103F13100A042D5DB0A4432
:10C2A000234452105B10328001202B80CEE7000027
:10C2B0002C4BD3F8043210B52B4C002B41D104F198
:10C2C0000A0180B12046FFF7B7FF94F91430002B24
:10C2D00005DBC02323752388238163896382207D46
:10C2E00000F0800010BD2046FFF7A6FF0028ECD02C
:10C2F0002388D4ED066A07EE103AB4F9203007EE31
:10C30000903AB8EEC77AF8EEE77AE6EE877AD4ED9F
:10C31000076AFCEEE77A17EE903A2380638907EE0E
:10C32000103AB4F9223007EE903AB8EEC77AF8EE38
:10C33000E77AE6EE877AFCEEE77A17EE903A6381C9
:10C34000C3E794F91420237D002AA3BF002363824E
:10C350004FF6FF7303F07F03A5BF2380034B2375C4
:10C36000A360BCE700804042401100200000FFFFB6
:10C370002DE9F3410D4604461046FDF745FC2FB26A
:10C3800004F10D02A4F10C003B46394612B200B292
:10C39000FDF772FB26B205F10D03A5F10C01324643
:10C3A0001BB2304609B204F10108FDF765FB1FFA24
:10C3B00088F8691C013C89B24046A4B20191FDF79E
:10C3C00095FA01992046FDF791FA691E89B2404617
:10C3D0000191FDF78BFA01992046FDF787FA0622B5
:10C3E0003946304602B0BDE8F041FDF7ACBB000075
:10C3F0002DE9F04F2DED028BA34B8FB01888FDF780
:10C4000003FBA24A05210120FDF77AFE14214FF417
:10C4100078420846FFF7ACFF9D4B002400221C75B4
:10C420009A6125469B4A13889BB22BB3002616803F
:10C4300007F0B0FFFCF7A0FC974B1B78012B974B44
:10C4400016BF0122C3F8A462C3F8A422944B1A7841
:10C4500012B9944A12781AB1904A0021C2F8A8126F
:10C460001B7833B98F4B1B781BB98C4B0122C3F857
:10C47000A8220120FFF71CFF854B1A7D02F0C001A6
:10C48000402934D122F040021A750EAA02EB85022F
:10C49000013519885B8922F80E3CEDB26B1E22F83B
:10C4A000101C032B22D8DFE803F00210455614219C
:10C4B00008464FF6FF72FFF75BFF7B4B18884FF47F
:10C4C00078421438142180B20EE0774C208814385A
:10C4D0004FF6FF72142180B2FFF74AFF61881439CA
:10C4E0004FF4784289B21420FFF742FF0024013450
:10C4F0000A20A4B2FBF748FEB4F57A7F92D96B4AC2
:10C5000005210120FDF7FCFD4FF4FA70FBF73CFE1E
:10C510004FF6FF70FDF778FB0020FDF77BFB5A4BD1
:10C520001888FDF771FA0FB0BDEC028BBDE8F04F33
:10C53000FFF75EBD5C4C618814394FF6FF7289B21B
:10C540001420FFF715FF61882088143914384FF440
:10C55000784289B2B7E7BDF82850BDF82CA0BDF8E5
:10C560002A40BDF82EB0A5EB0A000028A4EB0B036F
:10C57000B8BF4042002BB8BF5B425B4300FB0030BA
:10C580000FF0DAFF41EC100B0FF094FD51EC100BA3
:10C5900010F024FB83B208EE903ABDF83080BDF86D
:10C5A0003430BDF832900693A8EB0300BDF8363066
:10C5B00007930028A9EB0303B8BF4042002BB8BF84
:10C5C0005B425B4300FB00300FF0B6FF41EC100B09
:10C5D0000FF070FD51EC100B10F000FB83B208EE71
:10C5E000103AB8EE687AF8EEC87AC7EE277A17EEF6
:10C5F000900A0FF0C3FF20A3D3E9002306460F469D
:10C6000010F086FA70B91EA3D3E9002330463946EC
:10C6100010F09CFA30B918EE903A1BB118EE103AAF
:10C62000002B47D1204B59881888143914384FF6FD
:10C63000FF7289B280B2FFF79BFE142108464FF4C7
:10C640007842FFF795FE1A4B0022304639460FF02C
:10C65000EDFF10F0C3FA079B0393069BCDF8008013
:10C6600080B2CDE9019304905B46524621462846AC
:10C67000FFF70CFC0024D4E6666666666666EE3F4D
:10C68000CDCCCCCCCCCCF03FF20F00204D19020821
:10C6900040110020B6090020B80900200080424265
:10C6A000D40C0020C60900201E11002086190208A3
:10C6B00000005940A5EB08000028A4EB0903B8BF0F
:10C6C0004042002BB8BF5B425B4300FB00300FF0E1
:10C6D00033FF41EC100B0FF0EDFC069BAAEB0300BF
:10C6E000079B0028ABEB0303B8BF4042002BB8BF49
:10C6F0005B425B4300FB00308DED080B0FF01CFF2D
:10C7000041EC100B0FF0D6FCDDE9080157EC106B83
:10C7100010F064FA80B207EE900A39463046B8EE5F
:10C72000678A10F05BFA80B207EE900AF8EEE77ABB
:10C73000C8EE277A17EE900A0FF020FF8BA3D3E9FB
:10C74000002306460F4610F0E3F900287FF46AAF95
:10C7500088A3D3E900233046394610F0F7F90028C2
:10C760007FF460AFAAEB08000028ABEB0903B8BF69
:10C770004042002BB8BF5B425B4300FB00300FF030
:10C78000DBFE41EC100B0FF095FC069BE81A079BB3
:10C790000028A4EB0303B8BF4042002BB8BF5B42A4
:10C7A0005B4300FB00308DED080B0FF0C5FE41EC44
:10C7B000100B0FF07FFCDDE9080157EC106B10F057
:10C7C0000DFA80B207EE900A39463046B8EE678A15
:10C7D00010F004FA80B207EE900AF8EEE77AC8EE9D
:10C7E000277A17EE900A0FF0C9FE60A3D3E9002361
:10C7F00006460F4610F08CF900287FF413AF5DA3B6
:10C80000D3E900233046394610F0A0F900287FF420
:10C8100009AF4F4B4F4E18885988A0F1280307EEF7
:10C82000103AAAEB050307EE903AB8EEC77AF8EE95
:10C83000E77A5544C7EE276A07EE905A07EE100ACA
:10C84000F8EEE77AB8EEC77AB6EE005AA6EEE77AC7
:10C85000C6ED066A27EE057ABDEEC77A17EE103AE6
:10C860003384A1F1280305EE903AA9EB040306EE08
:10C87000103AF8EEE55AB8EEC66A4C4485EE867A70
:10C8800007EE904A06EE101AF8EEE77AB8EEC66A9E
:10C8900086ED077AA7EE676A66EE057AFDEEE77A1F
:10C8A00017EE903AFDEEE67A738417EE903A002B7D
:10C8B000B8BF5B42022B08DCFDEEC77A17EE903A58
:10C8C000002BB8BF5B42022B28DD143914384FF619
:10C8D000FF7289B280B2FFF74BFD142108464FF476
:10C8E0007842FFF745FD1C4A06210120FDF708FCB0
:10C8F00096F82450194A002D0CBF0123002386F816
:10C900002430174B05D190211170D0221A702C467B
:10C9100088E5D021117090221A70ABE6114C208866
:10C92000FDF772F8104A06210120FDF7E9FB4FF4EC
:10C93000FA70FBF729FCFFF7F7FA20880FB0BDEC7F
:10C94000028BBDE8F04FFDF75FB800BFAFF300808A
:10C950001E110020401100205C1902080100002077
:10C9600002000020F20F00206E190208666666665B
:10C970006666EE3FCDCCCCCCCCCCF03F10B50121DF
:10C98000262007F09FFD214810230322022107F0F3
:10C9900091FB1E4810230322042107F08BFB012387
:10C9A00019461A48032207F085FB19480123032280
:10C9B0004FF4005107F07EFB1648012303224FF489
:10C9C000006107F077FB14480024002300F10A01FE
:10C9D000C0E90044C0E90244046104628361C361A8
:10C9E000047580F82440FFF713FCFFF701FB58B9EA
:10C9F0000A4B1888FDF708F8FFF7FAFCFFF794FADE
:10CA0000FFF7F6FA012010BD2046FCE700040240C3
:10CA1000000802400014024040110020F20F0020E4
:10CA200070B5012188B0084607F04CFD0121084689
:10CA300007F06CFD1223284803224FF4807107F0A1
:10CA400039FB254801220821002407F076FB42F239
:10CA50001073A72205A92148ADF81C40CDE9052394
:10CA6000012508F021F8032602A91C48ADF808406A
:10CA7000ADF80A40ADF80C50ADF80E40ADF81060BE
:10CA800008F098F82A463146144808F0EFF829468D
:10CA9000124808F049F81B238DF8043001A802233E
:10CAA0008DF805308DF806408DF8075006F096FF9A
:10CAB000192301A88DF804308DF805508DF8064033
:10CAC0008DF8075006F08AFF054B1C70054B1C7053
:10CAD000054B1C7008B070BD000002400000014012
:10CAE000681100206A1100206911002008B5104863
:10CAF000012108F0C4F8012814D10E4B93F900105D
:10CB00001A7800290EDA02F0EF0012F00F0108BFC8
:10CB100040F0400018701A780D2994BF013202F0DD
:10CB200070021A70BDE808400148012108F0B2B84F
:10CB3000000001407411002070B52F48022108F058
:10CB40009EF8012810D12D4B2D4CD3F820528DB1D9
:10CB50002948022107F0F4FF2748002107F0E2FFEF
:10CB6000237843F010032370BDE87040224802216F
:10CB700008F090B82048234E07F0EAFF294630809D
:10CB80001D4807F0DDFF2278D3060CD53388160642
:10CB900026D56FF496701918B1F5F97F07D81A4A9F
:10CBA00013685B001360237823F01003DBE76FF456
:10CBB000AF615918B1F5C77F05D8134A13685B00F8
:10CBC00043F00103EEE7A3F69903B3F5C77FEAD874
:10CBD0000E490B7822F00F0201330B702270E2E74E
:10CBE000A3F58353093BB3F5F97F9FBF074B62F071
:10CBF0007F0222701D70D6E7000001400000404215
:10CC0000741100207611002070110020781100208E
:10CC100010B5114C227812F0400011D00F4B1B6858
:10CC20006FEA1341C9B2B1EB136F0AD149B9C3F32B
:10CC30000720DB43DBB283420BD118B1130601D5C9
:10CC400010BD002022F04002054B227000221A7015
:10CC5000F6E70846F6E700BF7411002070110020C7
:10CC60007811002037B56D4C238853B1013B2380E8
:10CC70006B4A13780133DBB2132B05D8137003B062
:10CC800030BD684A1370F3E700231370FFF7C0FF4D
:10CC9000654D28700028F2D0624B1A788242EED09F
:10CCA0002288002AEBD1622818705ED02ED838284E
:10CCB00000F0AB801DD8182800F0A98014D80228F5
:10CCC00061D05A4B102818BF0023594932222280C4
:10CCD00000220A70574901200A600093564A2B78B7
:10CCE0000221FDF70DFACAE7222845D0534B302820
:10CCF000E9E7522800F08D8005D8422800F08B80AB
:10CD00004F4B4A28DFE74F4B5A28DCE7A82848D08A
:10CD10000DD890284CD004D8682857D04A4B7A2890
:10CD2000D1E798285FD0A22818D00023CDE7E028CB
:10CD300030D00AD8B0285FD0C228F6D1434A137841
:10CD400043F001031370424BBFE7E228EDD13F4AA5
:10CD5000137843F0800313703E4BB6E73B4A1378D9
:10CD600043F0200313703C4BAFE7384A137843F08D
:10CD700040031370394BA8E7344A137843F0040397
:10CD80001370374BA1E7314A137843F00203137055
:10CD9000344B9AE72D4A137843F008031370324B53
:10CDA00093E72A4A137843F0100313702F4B8CE754
:10CDB0002F4A137BB3FA83F35B0913732D4BFF22C6
:10CDC0001A702D4B01221A702C4B7EE72C4B1A78CF
:10CDD0000AB92C4B79E700221A702B4B1B68002BE9
:10CDE000F7D09847F5E7294B1A781AB100221A7044
:10CDF000274B6AE70122FAE7214B1B781BB1224B34
:10CE00001B6803B19847234B5FE7234B5DE7234B38
:10CE10005BE7234B59E7234B57E700BF6C1100201A
:10CE2000691100206A11002068110020D919020838
:10CE30007411002070110020061A0208FC19020863
:10CE4000ED190208E3190208011A02085C17002014
:10CE5000BB190208AC190208A3190208A819020894
:10CE6000B1190208B6190208C0190208C51902084A
:10CE7000780000205A170020BD090020CA190208B6
:10CE80005B170020CF190208AC140020A914002061
:10CE9000D41902089E190208DE190208E8190208CE
:10CEA000F2190208F719020807EE900AF8EE677AFD
:10CEB00008B517EE900A0FF061FB0FA3D3E900232A
:10CEC0000FF0B4FB0EA3D3E900230FF0F7F90EA384
:10CED000D3E900230FF0D4FC054B00220FF0F0F94A
:10CEE000044B00220FF0A2FB0FF050FE00B208BD71
:10CEF00000002E40000059406666666666664A3F3E
:10CF000052B81E85EB51E83F7B14AE47E17A643F8F
:10CF100070B501218AB0202007F0D4FA03231A4605
:10CF20002B482C4E802107F0C5F801214FF4A0605A
:10CF300007F0ECFA01214FF4807007F0FFFA0021AE
:10CF40004FF4807007F0FAFA01214FF4806007F087
:10CF5000F5FA00214FF4806007F0F0FA00254FF455
:10CF600080336846CDE90053CDE9025506F092FDC5
:10CF7000049506950895184D012404A93046ADF88E
:10CF800014408DF8244006F05FFD04A9284606F001
:10CF90005BFD204606F09CFD2146304606F08EFDE6
:10CFA0002146284606F08AFD2346224630461021B7
:10CFB00006F09AFD234622460521284606F094FDF8
:10CFC000304606F0D5FD284606F0D2FD0AB070BD09
:10CFD00000140240002001400022014038B52948D9
:10CFE000022106F0CDFD28B3274C264806F0C5FDEA
:10CFF0002368264A18442060138801339BB21380AB
:10D0000013889BB2632B12D90025158020686423F6
:10D01000B0FBF3F046F2267380B258431C4BC013AA
:10D02000188000F57A7080B200F03EF8256015484F
:10D0300006F09EFD1748022106F0A2FD00B3164C33
:10D04000144806F09AFD2368144A18442060138897
:10D0500001339BB2138013889BB2632B0BD900253D
:10D06000158064232068B0FBF3F080B2FFF71CFF4B
:10D070000B4B25601880BDE83840064806F078BDA7
:10D0800038BD00BF00220140881100207A11002025
:10D090008411002000200140801100207C1100201C
:10D0A0007E1100200000000038B50FF045FA164B45
:10D0B00000220FF0E5FB154B00220FF0B7FA0EA38C
:10D0C000D3E900230FF0DCFB0DA3D3E900230446D2
:10D0D0000D460FF03BFD10B109A5D5E900452946E5
:10D0E00020460FF07BFDBDE8384081B2002006F0FD
:10D0F00071BD00BFAFF300806666666666660A4073
:10D100000000000000FEAF4000408F400000B04033
:10D110001FB50121084607F0D5F901214FF0005055
:10D1200007F0E8F9032300241A460B48102106F003
:10D13000C1FF0223694620460393CDE900440294CF
:10D1400006F024FD2046012106F036FD214620464A
:10D1500006F040FD04B010BD0000024010B50446CA
:10D160001420FCF7F7F920701520FCF7F3F9607034
:10D170001620FCF7EFF9A0701720FCF7EBF9E07030
:10D180001820FCF7E7F920711920FCF7E3F960712A
:10D190001A20FCF7DFF9A0711B20FCF7DBF9E07126
:10D1A0001C20FCF7D7F920721D20FCF7D3F9607220
:10D1B0001E20FCF7CFF9A0721F20FCF7CBF9E0721C
:10D1C0002020FCF7C7F920732120FCF7C3F9607316
:10D1D00010BD10B5044601781420FCF7AFF8617853
:10D1E0001520FCF7ABF8A1781620FCF7A7F8E1783A
:10D1F0001720FCF7A3F821791820FCF79FF8617934
:10D200001920FCF79BF8A1791A20FCF797F8E1792F
:10D210001B20FCF793F8217A1C20FCF78FF8617A29
:10D220001D20FCF78BF8A17A1E20FCF787F8E17A25
:10D230001F20FCF783F8217B2020FCF77FF8617B1F
:10D240002120BDE81040FCF779B8000038B5C1F3E3
:10D2500000220C46CBB20949097842EA4002054651
:10D26000D2B241B906483421FBF7AEFF054B00208E
:10D2700023F8154038BD04483421F5E7DC0F0020C1
:10D2800000540040040000200058004038B50C4D08
:10D29000B5F85E1000F0070021F0700141EA0011BE
:10D2A000040189B22F20FFF7D1FFB5F8601021F0FB
:10D2B0007001214389B2BDE838403020FFF7C6BF76
:10D2C0000400002038B50B4DB5F85E1000F00704DF
:10D2D00021F00701214389B22F20FFF7B7FFB5F8EE
:10D2E000601021F00701214389B2BDE838403020A9
:10D2F000FFF7ACBF0400002038B50D4D0C46EB889D
:10D3000068B143F003010320FFF7A0FFAB8854B1DD
:10D3100043F00301BDE838400220FFF797BF23F038
:10D32000030399B2EFE723F0030189B2F2E700BFEC
:10D3300004000020F8B5144F0D46BB88144606467D
:10D34000B0B143F00C010220FFF780FFB7F858306E
:10D3500096B143F033012C20FFF778FF85B105200B
:10D36000FFF794FF74B10720BDE8F840FFF7AABFAC
:10D3700023F00C0399B2E6E723F0330399B2EAE70E
:10D380002846EDE72046EFE70400002010B5041E14
:10D3900018BF012409B144F0160421463220FFF7DA
:10D3A00055FF21463320BDE81040FFF74FBF01F085
:10D3B000030100F00300490141EAC0010420FFF726
:10D3C00045BF10B510F03F0008BF402011F03F04EA
:10D3D00008BF402401463420FFF738FF44F4807131
:10D3E0003520BDE81040FFF731BF10B510F03F0405
:10D3F00008BF402421463620FFF728FF44F48071FF
:10D400003720BDE81040FFF721BF00F00F012920B1
:10D41000FFF71CBF084B18299B8C28BF182100F070
:10D42000030003F48073C1F1180143EA4010C9B24C
:10D4300001431220FFF70ABF04000020182928BF6B
:10D440001821C1F1180100F00300C9B241EA4011EE
:10D450001320FFF7FBBE182928BF1821C1F11801BE
:10D4600000F00300C9B241EA40111420FFF7EEBEFC
:10D47000182928BF1821C1F1180100F00300C9B212
:10D4800041EA40111520FFF7E1BE182928BF1821F5
:10D49000C1F1180100F00300C9B241EA40111620A1
:10D4A000FFF7D4BE10B50121062007F00BF837486E
:10D4B000122303224FF4805106F0FCFD334812235F
:10D4C00003224FF4005106F0F5FD314812230322E8
:10D4D000042106F0EFFD2E4812230322082106F056
:10D4E000E9FD12232A480322402106F0E3FD2748E4
:10D4F00005220C2106F021FE244805220D2106F00C
:10D500001CFE23480522032106F017FE20480522B1
:10D51000062106F012FE1E480522022106F00DFE2D
:10D5200000210846FFF792FE044660BB1B21012044
:10D53000FFF78CFE4FF4D8710220FFF787FE6C21B5
:10D540000320FFF783FE21460620FFF77FFE102110
:10D550002B20FFF77BFE4FF480712F20FFF776FE24
:10D560004FF480713020FFF771FE02213120FFF768
:10D570006DFE08210A20FFF769FE08210E20FFF743
:10D5800065FE204610BD0124FBE700BF00040240F9
:10D590000008024010B54FF48034013C05D240F23F
:10D5A000FF5007F0C9F9002010BD802007F0BAF93C
:10D5B0000028F2D0002CF2D10320F5E738B5124C48
:10D5C0000546636B13F0450FFBD0042007F0AAF962
:10D5D00020B1042007F0B0F9032038BD012007F086
:10D5E000A1F920B1012007F0A7F90120F5E723698F
:10D5F000AB4207D140F2FF5007F09EF9606900F09E
:10D600000800EAE71020E8E7002C014010B51149B6
:10D610004FF480330022013B0FD2530713D4012073
:10D6200007F080F9044618B1012007F085F90124BC
:10D6300040F2FF5007F080F909E04A6B12F0450F05
:10D64000E9D0002BE9D1042007F076F90324204625
:10D6500010BD00BF002C014010B50A4A536B13F0F7
:10D66000450FFBD0042007F05DF9044628B10420E3
:10D6700007F062F90324204610BD40F2FF5007F086
:10D680005BF9F8E7002C0140F8B51B4E07460D4644
:10D69000736B13F0450FFBD0042007F043F928B15A
:10D6A000042007F049F903242046F8BD012007F0C3
:10D6B00039F9044620B1012007F03EF90124F3E7CF
:10D6C0003369BB4201D01024EEE740F2FF5007F06F
:10D6D00033F9736913F4604F02D11B0C2B80E3E71D
:10D6E000990406D45A04EED413F4004F18BF0F2443
:10D6F000DAE71324D8E700BF002C014010B50E492B
:10D700004FF480320020013A0AD210F004040DD107
:10D7100010F040000ED0402007F00EF9204609E03E
:10D72000486B10F0450FEED0002AEED1042007F030
:10D7300003F9032010BD00BF002C01400346002266
:10D74000012BD0B202F1010200D170475B08F7E76C
:10D750002DE9F0474C4D1024002328464FF00809CE
:10D760004FF040084FF48067C5E90094C5E9028393
:10D770000E462F6107F0AAF82046FFF71FFF044668
:10D78000002854D1414B1B68C5E903071B044FF027
:10D79000370A28462B60C5E901A807F097F85046DC
:10D7A000FFF70CFF0446002841D139484FF0FF3302
:10D7B000C0E9003930220223C0E90223012343617A
:10D7C00004614FF0330907F097F82846C5E903478D
:10D7D0002C60C5E9019807F079F84846FFF7EEFE9E
:10D7E000044620BB2B4C40F22A67656B3D4021D19B
:10D7F0004FF4001007F096F80028F6D0D4F88070A7
:10D80000244C40F22A68636B13EA080F07D14FF4E7
:10D81000001007F087F80028F5D0D4F880500820D1
:10D8200007F080F848B1082007F086F80424204665
:10D83000BDE8F08700252F46F1E7022007F072F8D7
:10D8400020B1022007F078F80224F0E7202007F04A
:10D8500069F820B1202007F06FF80624E7E74FF4BD
:10D86000007007F05FF8044628B14FF4007007F02D
:10D8700063F80724DBE740F2FF503FBA2DBA07F008
:10D880005BF877603560D2E710120020B0110020FD
:10D8900024140020002C014073B5204A126805466C
:10D8A0001F48002312040093026001930D214022BF
:10D8B000C3604FF480630361C0E9011207F006F80A
:10D8C000184B5A6B0192019A12F0450FF9D00120C2
:10D8D00007F028F830B1012007F02EF80124204687
:10D8E00002B070BD042007F01DF8044620B10420EA
:10D8F00007F022F80324F2E70A4E33690D2B0AD110
:10D9000040F2FF5007F018F873690093009BC3F3CF
:10D9100043232B70E3E71024E1E700BFB0110020A0
:10D9200010120020002C01402DE9F3410023CDE925
:10D9300000331B4B5B69051E18BF02259A012BD4CF
:10D94000184E69463088FFF703FF10BB019B5B034D
:10D9500024D5154C3368E0601B044FF0370820468F
:10D9600040274FF48066C4E901872360266106F0F2
:10D97000ADFF4046FFF722FE58B9C4E90306256013
:10D9800020460625C4E9015706F0A0FF2846FFF708
:10D9900015FE02B0BDE8F0810E20FAE72520F8E779
:10D9A000002C0140B011002010120020064B074946
:10D9B00000221A605A609A60DA605A629A62DA62E9
:10D9C0009963DA63704700BF002C0140FF07C00075
:10D9D000034A536823F0FF0318435060704700BFA9
:10D9E000002C01405C482DE9F047762300260375A2
:10D9F000C0E90066C0E90266066106F041FF032047
:10DA000006F056FF554A564C536843F480735360F2
:10DA10004A2753484FF48068C4E90066C4E90266A7
:10DA2000C4F8108006F052FFFFF7B4FD054630B190
:10DA3000013F17F0FF07ECD12846BDE8F087082327
:10DA40004FF4D576C4E900634023C4E9023044486A
:10DA5000C4F8108006F03AFFFFF750FE20B9414BA2
:10DA600001221A704FF0804500264023C4E9023697
:10DA70003B4837274FF48063C4E90067236106F011
:10DA800025FF3846FFF79AFD00283DD145F00047B5
:10DA9000DFF8CC80064647F4801700233725404640
:10DAA0004FF0400A4FF48069C4E90035C4E902A38D
:10DAB000C4F8109006F00AFF2846FFF77FFD0546E0
:10DAC0000028B9D12923C4E903094046C4E9013A31
:10DAD000276006F0FBFEFFF7BFFD05460028ABD12F
